{
    "_format": "hh-sol-artifact-1",
    "contractName": "TimeStaking",
    "sourceName": "contracts/Staking.sol",
    "abi": [
        {
            "inputs": [
                {
                    "internalType": "address",
                    "name": "_Time",
                    "type": "address"
                },
                {
                    "internalType": "address",
                    "name": "_Memories",
                    "type": "address"
                },
                {
                    "internalType": "uint32",
                    "name": "_epochLength",
                    "type": "uint32"
                },
                {
                    "internalType": "uint256",
                    "name": "_firstEpochNumber",
                    "type": "uint256"
                },
                {
                    "internalType": "uint32",
                    "name": "_firstEpochTime",
                    "type": "uint32"
                }
            ],
            "stateMutability": "nonpayable",
            "type": "constructor"
        },
        {
            "anonymous": false,
            "inputs": [
                {
                    "indexed": true,
                    "internalType": "address",
                    "name": "previousOwner",
                    "type": "address"
                },
                {
                    "indexed": true,
                    "internalType": "address",
                    "name": "newOwner",
                    "type": "address"
                }
            ],
            "name": "OwnershipPulled",
            "type": "event"
        },
        {
            "anonymous": false,
            "inputs": [
                {
                    "indexed": true,
                    "internalType": "address",
                    "name": "previousOwner",
                    "type": "address"
                },
                {
                    "indexed": true,
                    "internalType": "address",
                    "name": "newOwner",
                    "type": "address"
                }
            ],
            "name": "OwnershipPushed",
            "type": "event"
        },
        {
            "inputs": [],
            "name": "Memories",
            "outputs": [
                {
                    "internalType": "address",
                    "name": "",
                    "type": "address"
                }
            ],
            "stateMutability": "view",
            "type": "function"
        },
        {
            "inputs": [],
            "name": "Time",
            "outputs": [
                {
                    "internalType": "address",
                    "name": "",
                    "type": "address"
                }
            ],
            "stateMutability": "view",
            "type": "function"
        },
        {
            "inputs": [
                {
                    "internalType": "address",
                    "name": "_recipient",
                    "type": "address"
                }
            ],
            "name": "claim",
            "outputs": [],
            "stateMutability": "nonpayable",
            "type": "function"
        },
        {
            "inputs": [],
            "name": "contractBalance",
            "outputs": [
                {
                    "internalType": "uint256",
                    "name": "",
                    "type": "uint256"
                }
            ],
            "stateMutability": "view",
            "type": "function"
        },
        {
            "inputs": [],
            "name": "distributor",
            "outputs": [
                {
                    "internalType": "address",
                    "name": "",
                    "type": "address"
                }
            ],
            "stateMutability": "view",
            "type": "function"
        },
        {
            "inputs": [],
            "name": "epoch",
            "outputs": [
                {
                    "internalType": "uint256",
                    "name": "number",
                    "type": "uint256"
                },
                {
                    "internalType": "uint256",
                    "name": "distribute",
                    "type": "uint256"
                },
                {
                    "internalType": "uint32",
                    "name": "length",
                    "type": "uint32"
                },
                {
                    "internalType": "uint32",
                    "name": "endTime",
                    "type": "uint32"
                }
            ],
            "stateMutability": "view",
            "type": "function"
        },
        {
            "inputs": [],
            "name": "forfeit",
            "outputs": [],
            "stateMutability": "nonpayable",
            "type": "function"
        },
        {
            "inputs": [
                {
                    "internalType": "uint256",
                    "name": "_amount",
                    "type": "uint256"
                }
            ],
            "name": "giveLockBonus",
            "outputs": [],
            "stateMutability": "nonpayable",
            "type": "function"
        },
        {
            "inputs": [],
            "name": "index",
            "outputs": [
                {
                    "internalType": "uint256",
                    "name": "",
                    "type": "uint256"
                }
            ],
            "stateMutability": "view",
            "type": "function"
        },
        {
            "inputs": [],
            "name": "locker",
            "outputs": [
                {
                    "internalType": "address",
                    "name": "",
                    "type": "address"
                }
            ],
            "stateMutability": "view",
            "type": "function"
        },
        {
            "inputs": [],
            "name": "manager",
            "outputs": [
                {
                    "internalType": "address",
                    "name": "",
                    "type": "address"
                }
            ],
            "stateMutability": "view",
            "type": "function"
        },
        {
            "inputs": [],
            "name": "pullManagement",
            "outputs": [],
            "stateMutability": "nonpayable",
            "type": "function"
        },
        {
            "inputs": [
                {
                    "internalType": "address",
                    "name": "newOwner_",
                    "type": "address"
                }
            ],
            "name": "pushManagement",
            "outputs": [],
            "stateMutability": "nonpayable",
            "type": "function"
        },
        {
            "inputs": [],
            "name": "rebase",
            "outputs": [],
            "stateMutability": "nonpayable",
            "type": "function"
        },
        {
            "inputs": [],
            "name": "renounceManagement",
            "outputs": [],
            "stateMutability": "nonpayable",
            "type": "function"
        },
        {
            "inputs": [
                {
                    "internalType": "uint256",
                    "name": "_amount",
                    "type": "uint256"
                }
            ],
            "name": "returnLockBonus",
            "outputs": [],
            "stateMutability": "nonpayable",
            "type": "function"
        },
        {
            "inputs": [
                {
                    "internalType": "enum TimeStaking.CONTRACTS",
                    "name": "_contract",
                    "type": "uint8"
                },
                {
                    "internalType": "address",
                    "name": "_address",
                    "type": "address"
                }
            ],
            "name": "setContract",
            "outputs": [],
            "stateMutability": "nonpayable",
            "type": "function"
        },
        {
            "inputs": [
                {
                    "internalType": "uint256",
                    "name": "_warmupPeriod",
                    "type": "uint256"
                }
            ],
            "name": "setWarmup",
            "outputs": [],
            "stateMutability": "nonpayable",
            "type": "function"
        },
        {
            "inputs": [
                {
                    "internalType": "uint256",
                    "name": "_amount",
                    "type": "uint256"
                },
                {
                    "internalType": "address",
                    "name": "_recipient",
                    "type": "address"
                }
            ],
            "name": "stake",
            "outputs": [
                {
                    "internalType": "bool",
                    "name": "",
                    "type": "bool"
                }
            ],
            "stateMutability": "nonpayable",
            "type": "function"
        },
        {
            "inputs": [],
            "name": "toggleDepositLock",
            "outputs": [],
            "stateMutability": "nonpayable",
            "type": "function"
        },
        {
            "inputs": [],
            "name": "totalBonus",
            "outputs": [
                {
                    "internalType": "uint256",
                    "name": "",
                    "type": "uint256"
                }
            ],
            "stateMutability": "view",
            "type": "function"
        },
        {
            "inputs": [
                {
                    "internalType": "uint256",
                    "name": "_amount",
                    "type": "uint256"
                },
                {
                    "internalType": "bool",
                    "name": "_trigger",
                    "type": "bool"
                }
            ],
            "name": "unstake",
            "outputs": [],
            "stateMutability": "nonpayable",
            "type": "function"
        },
        {
            "inputs": [],
            "name": "warmupContract",
            "outputs": [
                {
                    "internalType": "address",
                    "name": "",
                    "type": "address"
                }
            ],
            "stateMutability": "view",
            "type": "function"
        },
        {
            "inputs": [
                {
                    "internalType": "address",
                    "name": "",
                    "type": "address"
                }
            ],
            "name": "warmupInfo",
            "outputs": [
                {
                    "internalType": "uint256",
                    "name": "deposit",
                    "type": "uint256"
                },
                {
                    "internalType": "uint256",
                    "name": "gons",
                    "type": "uint256"
                },
                {
                    "internalType": "uint256",
                    "name": "expiry",
                    "type": "uint256"
                },
                {
                    "internalType": "bool",
                    "name": "lock",
                    "type": "bool"
                }
            ],
            "stateMutability": "view",
            "type": "function"
        },
        {
            "inputs": [],
            "name": "warmupPeriod",
            "outputs": [
                {
                    "internalType": "uint256",
                    "name": "",
                    "type": "uint256"
                }
            ],
            "stateMutability": "view",
            "type": "function"
        }
    ],
    "bytecode": "0x60c060405234801561001057600080fd5b50604051611a77380380611a77833981810160405260a081101561003357600080fd5b50805160208201516040808401516060850151608090950151600080546001600160a01b031916331780825593519596949592949391926001600160a01b0392909216917fea8258f2d9ddb679928cf34b78cf645b7feda9acc828e4dd82d014eaae270eba908290a36001600160a01b0385166100af57600080fd5b6001600160601b0319606086901b166080526001600160a01b0384166100d457600080fd5b6001600160601b0319606094851b1660a0526040805160808101825283815260006020820181905263ffffffff95861692820183905292909416939094018390526002919091556003556004805464010000000090920263ffffffff60201b1963ffffffff19909316909317919091169190911790555060805160601c60a05160601c6118bd6101ba600039806103d1528061055a528061063b52806106c552806109b25280610abe5280610d735280610df05280610f7d5280611144528061128c5250806108bc5280610c755280610da8528061122b52806112b852506118bd6000f3fe608060405234801561001057600080fd5b50600436106101335760003560e01c806303c2367014610138578063089208d8146101575780631e83409a1461015f5780632986c0e514610185578063367efb621461019f57806346f68ee9146101c3578063481c6a75146101e95780635a96ac0a146101f15780636746f4c2146101f95780637acb775714610247578063865e6fd3146102875780638b7afe2e146102b65780638f077b83146102be578063900cf0cf146102c65780639ebea88c146102fa578063a8dd07dc1461031f578063af14052c14610327578063bfe109281461032f578063c9f464ff14610337578063d7b96d4e14610354578063deac361a1461035c578063ed4acaa814610364578063f3d86e4a1461036c578063f62ae76a14610374578063f8e157ea14610391575b600080fd5b6101556004803603602081101561014e57600080fd5b5035610399565b005b6101556103fd565b6101556004803603602081101561017557600080fd5b50356001600160a01b0316610482565b61018d610637565b60408051918252519081900360200190f35b6101a76106c3565b604080516001600160a01b039092168252519081900360200190f35b610155600480360360208110156101d957600080fd5b50356001600160a01b03166106e7565b6101a76107c2565b6101556107d1565b61021f6004803603602081101561020f57600080fd5b50356001600160a01b031661087b565b6040805194855260208501939093528383019190915215156060830152519081900360800190f35b6102736004803603604081101561025d57600080fd5b50803590602001356001600160a01b03166108a5565b604080519115158252519081900360200190f35b6101556004803603604081101561029d57600080fd5b50803560ff1690602001356001600160a01b0316610af1565b61018d610c6b565b610155610d17565b6102ce610d3b565b60408051948552602085019390935263ffffffff91821684840152166060830152519081900360800190f35b6101556004803603604081101561031057600080fd5b50803590602001351515610d58565b61018d610dcf565b610155610dd5565b6101a7611025565b6101556004803603602081101561034d57600080fd5b5035611034565b6101a7611086565b61018d611095565b6101a761109b565b6101556110aa565b6101556004803603602081101561038a57600080fd5b5035611254565b6101a76112b6565b6006546001600160a01b031633146103b057600080fd5b6007546103bd90826112da565b6007556006546103fa906001600160a01b037f00000000000000000000000000000000000000000000000000000000000000008116911683611339565b50565b6000546001600160a01b0316331461044a576040805162461bcd60e51b8152602060048201819052602482015260008051602061183e833981519152604482015290519081900360640190fd5b600080546040516001600160a01b03909116906000805160206117b3833981519152908390a3600080546001600160a01b0319169055565b61048a611765565b506001600160a01b0381166000908152600a602090815260409182902082516080810184528154815260018201549281019290925260028082015493830184905260039091015460ff1615156060830152549091118015906104ef5750604081015115155b15610633576001600160a01b038083166000908152600a602090815260408083208381556001810184905560028101939093556003909201805460ff19169055600854848201518351637965d56d60e01b8152600481019190915292519084169363c3a2a6659387937f000000000000000000000000000000000000000000000000000000000000000090921692637965d56d92602480840193919291829003018186803b1580156105a057600080fd5b505afa1580156105b4573d6000803e3d6000fd5b505050506040513d60208110156105ca57600080fd5b5051604080516001600160e01b031960e086901b1681526001600160a01b039093166004840152602483019190915251604480830192600092919082900301818387803b15801561061a57600080fd5b505af115801561062e573d6000803e3d6000fd5b505050505b5050565b60007f00000000000000000000000000000000000000000000000000000000000000006001600160a01b0316632986c0e56040518163ffffffff1660e01b815260040160206040518083038186803b15801561069257600080fd5b505afa1580156106a6573d6000803e3d6000fd5b505050506040513d60208110156106bc57600080fd5b5051905090565b7f000000000000000000000000000000000000000000000000000000000000000081565b6000546001600160a01b03163314610734576040805162461bcd60e51b8152602060048201819052602482015260008051602061183e833981519152604482015290519081900360640190fd5b6001600160a01b0381166107795760405162461bcd60e51b81526004018080602001828103825260268152602001806117d36026913960400191505060405180910390fd5b600080546040516001600160a01b03808516939216916000805160206117b383398151915291a3600180546001600160a01b0319166001600160a01b0392909216919091179055565b6000546001600160a01b031690565b6001546001600160a01b0316331461081a5760405162461bcd60e51b815260040180806020018281038252602281526020018061181c6022913960400191505060405180910390fd5b600154600080546040516001600160a01b0393841693909116917faa151555690c956fc3ea32f106bb9f119b5237a061eaa8557cff3e51e3792c8d91a3600154600080546001600160a01b0319166001600160a01b03909216919091179055565b600a6020526000908152604090208054600182015460028301546003909301549192909160ff1684565b60006108af610dd5565b6108e46001600160a01b037f000000000000000000000000000000000000000000000000000000000000000016333086611390565b6108ec611765565b506001600160a01b0382166000908152600a602090815260409182902082516080810184528154815260018201549281019290925260028101549282019290925260039091015460ff16158015606083015261098f576040805162461bcd60e51b815260206004820152601f60248201527f4465706f7369747320666f72206163636f756e7420617265206c6f636b656400604482015290519081900360640190fd5b6040805160808101909152815181906109a890876112da565b8152602001610a4b7f00000000000000000000000000000000000000000000000000000000000000006001600160a01b0316631bd39674886040518263ffffffff1660e01b81526004018082815260200191505060206040518083038186803b158015610a1457600080fd5b505afa158015610a28573d6000803e3d6000fd5b505050506040513d6020811015610a3e57600080fd5b50516020850151906112da565b8152600954600254602090920191610a62916112da565b8152600060209182018190526001600160a01b038681168252600a8352604091829020845181559284015160018401559083015160028301556060909201516003909101805460ff1916911515919091179055600854610ae7917f00000000000000000000000000000000000000000000000000000000000000008116911686611339565b5060019392505050565b6000546001600160a01b03163314610b3e576040805162461bcd60e51b8152602060048201819052602482015260008051602061183e833981519152604482015290519081900360640190fd5b6000826002811115610b4c57fe5b1415610b7257600580546001600160a01b0319166001600160a01b038316179055610633565b6001826002811115610b8057fe5b1415610bee576008546001600160a01b031615610bce5760405162461bcd60e51b81526004018080602001828103825260238152602001806117f96023913960400191505060405180910390fd5b600880546001600160a01b0319166001600160a01b038316179055610633565b6002826002811115610bfc57fe5b1415610633576006546001600160a01b031615610c4a5760405162461bcd60e51b81526004018080602001828103825260238152602001806117906023913960400191505060405180910390fd5b600680546001600160a01b0383166001600160a01b03199091161790555050565b6000610d126007547f00000000000000000000000000000000000000000000000000000000000000006001600160a01b03166370a08231306040518263ffffffff1660e01b815260040180826001600160a01b0316815260200191505060206040518083038186803b158015610ce057600080fd5b505afa158015610cf4573d6000803e3d6000fd5b505050506040513d6020811015610d0a57600080fd5b5051906112da565b905090565b336000908152600a60205260409020600301805460ff19811660ff90911615179055565b60025460035460045463ffffffff80821691600160201b90041684565b8015610d6657610d66610dd5565b610d9b6001600160a01b037f000000000000000000000000000000000000000000000000000000000000000016333085611390565b6106336001600160a01b037f0000000000000000000000000000000000000000000000000000000000000000163384611339565b60075481565b60045463ffffffff428116600160201b9092041611611023577f00000000000000000000000000000000000000000000000000000000000000006001600160a01b031663058ecdb46002600101546002600001546040518363ffffffff1660e01b81526004018083815260200182815260200192505050602060405180830381600087803b158015610e6657600080fd5b505af1158015610e7a573d6000803e3d6000fd5b505050506040513d6020811015610e9057600080fd5b5050600454610eb19063ffffffff600160201b82048116918116906113f016565b6004805463ffffffff92909216600160201b0263ffffffff60201b199092169190911790556002805460010190556005546001600160a01b031615610f6d57600560009054906101000a90046001600160a01b03166001600160a01b031663e4fc6b6d6040518163ffffffff1660e01b8152600401602060405180830381600087803b158015610f4057600080fd5b505af1158015610f54573d6000803e3d6000fd5b505050506040513d6020811015610f6a57600080fd5b50505b6000610f77610c6b565b905060007f00000000000000000000000000000000000000000000000000000000000000006001600160a01b0316639358928b6040518163ffffffff1660e01b815260040160206040518083038186803b158015610fd457600080fd5b505afa158015610fe8573d6000803e3d6000fd5b505050506040513d6020811015610ffe57600080fd5b50519050808211611013576000600355610633565b61101d8282611451565b60035550505b565b6005546001600160a01b031681565b6000546001600160a01b03163314611081576040805162461bcd60e51b8152602060048201819052602482015260008051602061183e833981519152604482015290519081900360640190fd5b600955565b6006546001600160a01b031681565b60095481565b6008546001600160a01b031681565b6110b2611765565b50336000818152600a602081815260408084208151608081018352815481526001820180548286019081526002840180548487015260038501805460ff8116151560608701529a8a5297875293889055908790559590915560ff1990951690925560085492518251637965d56d60e01b8152600481019190915291516001600160a01b039384169363c3a2a6659330937f000000000000000000000000000000000000000000000000000000000000000090921692637965d56d92602480840193919291829003018186803b15801561118a57600080fd5b505afa15801561119e573d6000803e3d6000fd5b505050506040513d60208110156111b457600080fd5b5051604080516001600160e01b031960e086901b1681526001600160a01b039093166004840152602483019190915251604480830192600092919082900301818387803b15801561120457600080fd5b505af1158015611218573d6000803e3d6000fd5b505082516103fa92506001600160a01b037f00000000000000000000000000000000000000000000000000000000000000001691503390611339565b6006546001600160a01b0316331461126b57600080fd5b6007546112789082611451565b6007556006546103fa906001600160a01b037f0000000000000000000000000000000000000000000000000000000000000000811691163084611390565b7f000000000000000000000000000000000000000000000000000000000000000081565b600082820183811015611332576040805162461bcd60e51b815260206004820152601b60248201527a536166654d6174683a206164646974696f6e206f766572666c6f7760281b604482015290519081900360640190fd5b9392505050565b604080516001600160a01b038416602482015260448082018490528251808303909101815260649091019091526020810180516001600160e01b031663a9059cbb60e01b17905261138b908490611493565b505050565b604080516001600160a01b0380861660248301528416604482015260648082018490528251808303909101815260849091019091526020810180516001600160e01b03166323b872dd60e01b1790526113ea908590611493565b50505050565b600082820163ffffffff8085169082161015611332576040805162461bcd60e51b815260206004820152601b60248201527a536166654d6174683a206164646974696f6e206f766572666c6f7760281b604482015290519081900360640190fd5b600061133283836040518060400160405280601e81526020017f536166654d6174683a207375627472616374696f6e206f766572666c6f770000815250611544565b60606114e8826040518060400160405280602081526020017f5361666545524332303a206c6f772d6c6576656c2063616c6c206661696c6564815250856001600160a01b03166115db9092919063ffffffff16565b80519091501561138b5780806020019051602081101561150757600080fd5b505161138b5760405162461bcd60e51b815260040180806020018281038252602a81526020018061185e602a913960400191505060405180910390fd5b600081848411156115d35760405162461bcd60e51b81526004018080602001828103825283818151815260200191508051906020019080838360005b83811015611598578181015183820152602001611580565b50505050905090810190601f1680156115c55780820380516001836020036101000a031916815260200191505b509250505060405180910390fd5b505050900390565b60606115ea84846000856115f2565b949350505050565b60606115fd8561175f565b61164e576040805162461bcd60e51b815260206004820152601d60248201527f416464726573733a2063616c6c20746f206e6f6e2d636f6e7472616374000000604482015290519081900360640190fd5b60006060866001600160a01b031685876040518082805190602001908083835b6020831061168d5780518252601f19909201916020918201910161166e565b6001836020036101000a03801982511681845116808217855250505050505090500191505060006040518083038185875af1925050503d80600081146116ef576040519150601f19603f3d011682016040523d82523d6000602084013e6116f4565b606091505b509150915081156117085791506115ea9050565b8051156117185780518082602001fd5b60405162461bcd60e51b8152602060048201818152865160248401528651879391928392604401919085019080838360008315611598578181015183820152602001611580565b3b151590565b6040518060800160405280600081526020016000815260200160008152602001600015158152509056fe4c6f636b65722063616e6e6f7420626520736574206d6f7265207468616e206f6e6365ea8258f2d9ddb679928cf34b78cf645b7feda9acc828e4dd82d014eaae270eba4f776e61626c653a206e6577206f776e657220697320746865207a65726f20616464726573735761726d75702063616e6e6f7420626520736574206d6f7265207468616e206f6e63654f776e61626c653a206d757374206265206e6577206f776e657220746f2070756c6c4f776e61626c653a2063616c6c6572206973206e6f7420746865206f776e65725361666545524332303a204552433230206f7065726174696f6e20646964206e6f742073756363656564a26469706673582212204d494172b0879c1dfd97bef4da69fe955092b3dff216e0af66af3c5112fb32de64736f6c63430007050033",
    "linkReferences": {},
    "deployedLinkReferences": {}
}