{
    "_format": "hh-sol-artifact-1",
    "contractName": "TimeERC20Token",
    "sourceName": "contracts/TimeERC20.sol",
    "abi": [
        {
            "inputs": [],
            "stateMutability": "nonpayable",
            "type": "constructor"
        },
        {
            "anonymous": false,
            "inputs": [
                {
                    "indexed": true,
                    "internalType": "address",
                    "name": "owner",
                    "type": "address"
                },
                {
                    "indexed": true,
                    "internalType": "address",
                    "name": "spender",
                    "type": "address"
                },
                {
                    "indexed": false,
                    "internalType": "uint256",
                    "name": "value",
                    "type": "uint256"
                }
            ],
            "name": "Approval",
            "type": "event"
        },
        {
            "anonymous": false,
            "inputs": [
                {
                    "indexed": true,
                    "internalType": "address",
                    "name": "previousOwner",
                    "type": "address"
                },
                {
                    "indexed": true,
                    "internalType": "address",
                    "name": "newOwner",
                    "type": "address"
                }
            ],
            "name": "OwnershipTransferred",
            "type": "event"
        },
        {
            "anonymous": false,
            "inputs": [
                {
                    "indexed": true,
                    "internalType": "address",
                    "name": "from",
                    "type": "address"
                },
                {
                    "indexed": true,
                    "internalType": "address",
                    "name": "to",
                    "type": "address"
                },
                {
                    "indexed": false,
                    "internalType": "uint256",
                    "name": "value",
                    "type": "uint256"
                }
            ],
            "name": "Transfer",
            "type": "event"
        },
        {
            "inputs": [],
            "name": "DOMAIN_SEPARATOR",
            "outputs": [
                {
                    "internalType": "bytes32",
                    "name": "",
                    "type": "bytes32"
                }
            ],
            "stateMutability": "view",
            "type": "function"
        },
        {
            "inputs": [],
            "name": "PERMIT_TYPEHASH",
            "outputs": [
                {
                    "internalType": "bytes32",
                    "name": "",
                    "type": "bytes32"
                }
            ],
            "stateMutability": "view",
            "type": "function"
        },
        {
            "inputs": [
                {
                    "internalType": "address",
                    "name": "account_",
                    "type": "address"
                },
                {
                    "internalType": "uint256",
                    "name": "amount_",
                    "type": "uint256"
                }
            ],
            "name": "_burnFrom",
            "outputs": [],
            "stateMutability": "nonpayable",
            "type": "function"
        },
        {
            "inputs": [
                {
                    "internalType": "address",
                    "name": "owner",
                    "type": "address"
                },
                {
                    "internalType": "address",
                    "name": "spender",
                    "type": "address"
                }
            ],
            "name": "allowance",
            "outputs": [
                {
                    "internalType": "uint256",
                    "name": "",
                    "type": "uint256"
                }
            ],
            "stateMutability": "view",
            "type": "function"
        },
        {
            "inputs": [
                {
                    "internalType": "address",
                    "name": "spender",
                    "type": "address"
                },
                {
                    "internalType": "uint256",
                    "name": "amount",
                    "type": "uint256"
                }
            ],
            "name": "approve",
            "outputs": [
                {
                    "internalType": "bool",
                    "name": "",
                    "type": "bool"
                }
            ],
            "stateMutability": "nonpayable",
            "type": "function"
        },
        {
            "inputs": [
                {
                    "internalType": "address",
                    "name": "account",
                    "type": "address"
                }
            ],
            "name": "balanceOf",
            "outputs": [
                {
                    "internalType": "uint256",
                    "name": "",
                    "type": "uint256"
                }
            ],
            "stateMutability": "view",
            "type": "function"
        },
        {
            "inputs": [
                {
                    "internalType": "uint256",
                    "name": "amount",
                    "type": "uint256"
                }
            ],
            "name": "burn",
            "outputs": [],
            "stateMutability": "nonpayable",
            "type": "function"
        },
        {
            "inputs": [
                {
                    "internalType": "address",
                    "name": "account_",
                    "type": "address"
                },
                {
                    "internalType": "uint256",
                    "name": "amount_",
                    "type": "uint256"
                }
            ],
            "name": "burnFrom",
            "outputs": [],
            "stateMutability": "nonpayable",
            "type": "function"
        },
        {
            "inputs": [],
            "name": "decimals",
            "outputs": [
                {
                    "internalType": "uint8",
                    "name": "",
                    "type": "uint8"
                }
            ],
            "stateMutability": "view",
            "type": "function"
        },
        {
            "inputs": [
                {
                    "internalType": "address",
                    "name": "spender",
                    "type": "address"
                },
                {
                    "internalType": "uint256",
                    "name": "subtractedValue",
                    "type": "uint256"
                }
            ],
            "name": "decreaseAllowance",
            "outputs": [
                {
                    "internalType": "bool",
                    "name": "",
                    "type": "bool"
                }
            ],
            "stateMutability": "nonpayable",
            "type": "function"
        },
        {
            "inputs": [
                {
                    "internalType": "address",
                    "name": "spender",
                    "type": "address"
                },
                {
                    "internalType": "uint256",
                    "name": "addedValue",
                    "type": "uint256"
                }
            ],
            "name": "increaseAllowance",
            "outputs": [
                {
                    "internalType": "bool",
                    "name": "",
                    "type": "bool"
                }
            ],
            "stateMutability": "nonpayable",
            "type": "function"
        },
        {
            "inputs": [
                {
                    "internalType": "address",
                    "name": "account_",
                    "type": "address"
                },
                {
                    "internalType": "uint256",
                    "name": "amount_",
                    "type": "uint256"
                }
            ],
            "name": "mint",
            "outputs": [],
            "stateMutability": "nonpayable",
            "type": "function"
        },
        {
            "inputs": [],
            "name": "name",
            "outputs": [
                {
                    "internalType": "string",
                    "name": "",
                    "type": "string"
                }
            ],
            "stateMutability": "view",
            "type": "function"
        },
        {
            "inputs": [
                {
                    "internalType": "address",
                    "name": "owner",
                    "type": "address"
                }
            ],
            "name": "nonces",
            "outputs": [
                {
                    "internalType": "uint256",
                    "name": "",
                    "type": "uint256"
                }
            ],
            "stateMutability": "view",
            "type": "function"
        },
        {
            "inputs": [],
            "name": "owner",
            "outputs": [
                {
                    "internalType": "address",
                    "name": "",
                    "type": "address"
                }
            ],
            "stateMutability": "view",
            "type": "function"
        },
        {
            "inputs": [
                {
                    "internalType": "address",
                    "name": "owner",
                    "type": "address"
                },
                {
                    "internalType": "address",
                    "name": "spender",
                    "type": "address"
                },
                {
                    "internalType": "uint256",
                    "name": "amount",
                    "type": "uint256"
                },
                {
                    "internalType": "uint256",
                    "name": "deadline",
                    "type": "uint256"
                },
                {
                    "internalType": "uint8",
                    "name": "v",
                    "type": "uint8"
                },
                {
                    "internalType": "bytes32",
                    "name": "r",
                    "type": "bytes32"
                },
                {
                    "internalType": "bytes32",
                    "name": "s",
                    "type": "bytes32"
                }
            ],
            "name": "permit",
            "outputs": [],
            "stateMutability": "nonpayable",
            "type": "function"
        },
        {
            "inputs": [],
            "name": "renounceOwnership",
            "outputs": [],
            "stateMutability": "nonpayable",
            "type": "function"
        },
        {
            "inputs": [
                {
                    "internalType": "address",
                    "name": "vault_",
                    "type": "address"
                }
            ],
            "name": "setVault",
            "outputs": [
                {
                    "internalType": "bool",
                    "name": "",
                    "type": "bool"
                }
            ],
            "stateMutability": "nonpayable",
            "type": "function"
        },
        {
            "inputs": [],
            "name": "symbol",
            "outputs": [
                {
                    "internalType": "string",
                    "name": "",
                    "type": "string"
                }
            ],
            "stateMutability": "view",
            "type": "function"
        },
        {
            "inputs": [],
            "name": "totalSupply",
            "outputs": [
                {
                    "internalType": "uint256",
                    "name": "",
                    "type": "uint256"
                }
            ],
            "stateMutability": "view",
            "type": "function"
        },
        {
            "inputs": [
                {
                    "internalType": "address",
                    "name": "recipient",
                    "type": "address"
                },
                {
                    "internalType": "uint256",
                    "name": "amount",
                    "type": "uint256"
                }
            ],
            "name": "transfer",
            "outputs": [
                {
                    "internalType": "bool",
                    "name": "",
                    "type": "bool"
                }
            ],
            "stateMutability": "nonpayable",
            "type": "function"
        },
        {
            "inputs": [
                {
                    "internalType": "address",
                    "name": "sender",
                    "type": "address"
                },
                {
                    "internalType": "address",
                    "name": "recipient",
                    "type": "address"
                },
                {
                    "internalType": "uint256",
                    "name": "amount",
                    "type": "uint256"
                }
            ],
            "name": "transferFrom",
            "outputs": [
                {
                    "internalType": "bool",
                    "name": "",
                    "type": "bool"
                }
            ],
            "stateMutability": "nonpayable",
            "type": "function"
        },
        {
            "inputs": [
                {
                    "internalType": "address",
                    "name": "newOwner_",
                    "type": "address"
                }
            ],
            "name": "transferOwnership",
            "outputs": [],
            "stateMutability": "nonpayable",
            "type": "function"
        },
        {
            "inputs": [],
            "name": "vault",
            "outputs": [
                {
                    "internalType": "address",
                    "name": "",
                    "type": "address"
                }
            ],
            "stateMutability": "view",
            "type": "function"
        }
    ],
    "bytecode": "0x60806040523480156200001157600080fd5b506040518060400160405280600481526020016354696d6560e01b8152506040518060400160405280600481526020016354494d4560e01b815250600982600390805190602001906200006692919062000227565b5081516200007c90600490602085019062000227565b506005805460ff191660ff92909216919091179055504690507f8b73c3c69bb8fe3d512ecc4cf759cc79239f7b179b0ffacaa9a75d522b39400f620000c06200018d565b805160209182012060408051808201825260018152603160f81b90840152805180840194909452838101919091527fc89efdaa54c0f20c7adf612882df0950f5a951637e0307cdcb4c672f298b8bc6606084015260808301939093523060a0808401919091528351808403909101815260c0909201928390528151910120600755600880546001600160a01b0319163317908190556001600160a01b0316906000907f8be0079c531659141344cd1fd0a4f28419497f9722a3daafe3b4186f6b6457e0908290a3620002d3565b60038054604080516020601f60026000196101006001881615020190951694909404938401819004810282018101909252828152606093909290918301828280156200021d5780601f10620001f1576101008083540402835291602001916200021d565b820191906000526020600020905b815481529060010190602001808311620001ff57829003601f168201915b5050505050905090565b828054600181600116156101000203166002900490600052602060002090601f0160209004810192826200025f5760008555620002aa565b82601f106200027a57805160ff1916838001178555620002aa565b82800160010185558215620002aa579182015b82811115620002aa5782518255916020019190600101906200028d565b50620002b8929150620002bc565b5090565b5b80821115620002b85760008155600101620002bd565b61140c80620002e36000396000f3fe608060405234801561001057600080fd5b50600436106101285760003560e01c806306fdde031461012d578063095ea7b3146101aa57806318160ddd146101ea57806323b872dd1461020457806330adf81f1461023a578063313ce567146102425780633644e51514610260578063395093511461026857806340c10f191461029457806342966c68146102c25780636817031b146102df57806370a0823114610305578063715018a61461032b57806379cc6790146103335780637ecebe001461035f5780638da5cb5b1461038557806395d89b41146103a9578063a22b35ce146103b1578063a457c2d7146103dd578063a9059cbb14610409578063d505accf14610435578063dd62ed3e14610486578063f2fde38b146104b4578063fbfa77cf146104da575b600080fd5b6101356104e2565b6040805160208082528351818301528351919283929083019185019080838360005b8381101561016f578181015183820152602001610157565b50505050905090810190601f16801561019c5780820380516001836020036101000a031916815260200191505b509250505060405180910390f35b6101d6600480360360408110156101c057600080fd5b506001600160a01b038135169060200135610578565b604080519115158252519081900360200190f35b6101f261058e565b60408051918252519081900360200190f35b6101d66004803603606081101561021a57600080fd5b506001600160a01b03813581169160208101359091169060400135610594565b6101f26105fd565b61024a61060f565b6040805160ff9092168252519081900360200190f35b6101f2610618565b6101d66004803603604081101561027e57600080fd5b506001600160a01b03813516906020013561061e565b6102c0600480360360408110156102aa57600080fd5b506001600160a01b038135169060200135610654565b005b6102c0600480360360208110156102d857600080fd5b50356106ab565b6101d6600480360360208110156102f557600080fd5b50356001600160a01b03166106b8565b6101f26004803603602081101561031b57600080fd5b50356001600160a01b031661072d565b6102c0610748565b6102c06004803603604081101561034957600080fd5b506001600160a01b0381351690602001356107cd565b6101f26004803603602081101561037557600080fd5b50356001600160a01b03166107d7565b61038d6107fe565b604080516001600160a01b039092168252519081900360200190f35b61013561080d565b6102c0600480360360408110156103c757600080fd5b506001600160a01b03813516906020013561086e565b6101d6600480360360408110156103f357600080fd5b506001600160a01b0381351690602001356108ba565b6101d66004803603604081101561041f57600080fd5b506001600160a01b038135169060200135610909565b6102c0600480360360e081101561044b57600080fd5b506001600160a01b03813581169160208101359091169060408101359060608101359060ff6080820135169060a08101359060c00135610916565b6101f26004803603604081101561049c57600080fd5b506001600160a01b0381358116916020013516610b2c565b6102c0600480360360208110156104ca57600080fd5b50356001600160a01b0316610b57565b61038d610c33565b60038054604080516020601f600260001961010060018816150201909516949094049384018190048102820181019092528281526060939092909183018282801561056e5780601f106105435761010080835404028352916020019161056e565b820191906000526020600020905b81548152906001019060200180831161055157829003601f168201915b5050505050905090565b6000610585338484610c42565b50600192915050565b60025490565b60006105a1848484610d2e565b6105f384336105ee85604051806060016040528060288152602001611259602891396001600160a01b038a1660009081526001602090815260408083203384529091529020549190610e77565b610c42565b5060019392505050565b60008051602061134983398151915281565b60055460ff1690565b60075481565b3360008181526001602090815260408083206001600160a01b038716845290915281205490916105859185906105ee9086610f0e565b6009546001600160a01b0316331461069d5760405162461bcd60e51b81526004018080602001828103825260238152602001806112816023913960400191505060405180910390fd5b6106a78282610f6d565b5050565b6106b5338261104b565b50565b6008546000906001600160a01b03163314610708576040805162461bcd60e51b815260206004820181905260248201526000805160206112a4833981519152604482015290519081900360640190fd5b50600980546001600160a01b0383166001600160a01b03199091161790556001919050565b6001600160a01b031660009081526020819052604090205490565b6008546001600160a01b03163314610795576040805162461bcd60e51b815260206004820181905260248201526000805160206112a4833981519152604482015290519081900360640190fd5b6008546040516000916001600160a01b0316906000805160206112c4833981519152908390a3600880546001600160a01b0319169055565b6106a7828261086e565b6001600160a01b03811660009081526006602052604081206107f890611135565b92915050565b6008546001600160a01b031690565b60048054604080516020601f600260001961010060018816150201909516949094049384018190048102820181019092528281526060939092909183018282801561056e5780601f106105435761010080835404028352916020019161056e565b600061089e826040518060600160405280602481526020016112e4602491396108978633610b2c565b9190610e77565b90506108ab833383610c42565b6108b5838361104b565b505050565b600061058533846105ee856040518060600160405280602581526020016113b2602591393360009081526001602090815260408083206001600160a01b038d1684529091529020549190610e77565b6000610585338484610d2e565b83421115610966576040805162461bcd60e51b81526020600482015260186024820152775065726d69743a206578706972656420646561646c696e6560401b604482015290519081900360640190fd5b6001600160a01b03871660009081526006602052604081206000805160206113498339815191529089908990899061099d90611135565b604080516020808201979097526001600160a01b0395861681830152939094166060840152608083019190915260a082015260c08082018990528251808303909101815260e08201835280519084012060075461190160f01b610100840152610102830152610122808301829052835180840390910181526101428301808552815191860191909120600091829052610162840180865281905260ff8a166101828501526101a284018990526101c28401889052935191955092936001926101e280820193601f1981019281900390910190855afa158015610a83573d6000803e3d6000fd5b5050604051601f1901519150506001600160a01b03811615801590610ab95750896001600160a01b0316816001600160a01b0316145b610af45760405162461bcd60e51b81526004018080602001828103825260218152602001806112386021913960400191505060405180910390fd5b6001600160a01b038a166000908152600660205260409020610b1590611139565b610b208a8a8a610c42565b50505050505050505050565b6001600160a01b03918216600090815260016020908152604080832093909416825291909152205490565b6008546001600160a01b03163314610ba4576040805162461bcd60e51b815260206004820181905260248201526000805160206112a4833981519152604482015290519081900360640190fd5b6001600160a01b038116610be95760405162461bcd60e51b81526004018080602001828103825260268152602001806111ca6026913960400191505060405180910390fd5b6008546040516001600160a01b038084169216906000805160206112c483398151915290600090a3600880546001600160a01b0319166001600160a01b0392909216919091179055565b6009546001600160a01b031690565b6001600160a01b038316610c875760405162461bcd60e51b815260040180806020018281038252602481526020018061138e6024913960400191505060405180910390fd5b6001600160a01b038216610ccc5760405162461bcd60e51b81526004018080602001828103825260228152602001806111f06022913960400191505060405180910390fd5b6001600160a01b03808416600081815260016020908152604080832094871680845294825291829020859055815185815291517f8c5be1e5ebec7d5bd14f71427d1e84f3dd0314c0f7b2291e5b200ac8c7c3b9259281900390910190a3505050565b6001600160a01b038316610d735760405162461bcd60e51b81526004018080602001828103825260258152602001806113696025913960400191505060405180910390fd5b6001600160a01b038216610db85760405162461bcd60e51b81526004018080602001828103825260238152602001806111856023913960400191505060405180910390fd5b610dc38383836108b5565b610e0081604051806060016040528060268152602001611212602691396001600160a01b0386166000908152602081905260409020549190610e77565b6001600160a01b038085166000908152602081905260408082209390935590841681522054610e2f9082610f0e565b6001600160a01b0380841660008181526020818152604091829020949094558051858152905191939287169260008051602061130883398151915292918290030190a3505050565b60008184841115610f065760405162461bcd60e51b81526004018080602001828103825283818151815260200191508051906020019080838360005b83811015610ecb578181015183820152602001610eb3565b50505050905090810190601f168015610ef85780820380516001836020036101000a031916815260200191505b509250505060405180910390fd5b505050900390565b600082820183811015610f66576040805162461bcd60e51b815260206004820152601b60248201527a536166654d6174683a206164646974696f6e206f766572666c6f7760281b604482015290519081900360640190fd5b9392505050565b6001600160a01b038216610fc8576040805162461bcd60e51b815260206004820152601f60248201527f45524332303a206d696e7420746f20746865207a65726f206164647265737300604482015290519081900360640190fd5b610fd33083836108b5565b600254610fe09082610f0e565b6002556001600160a01b0382166000908152602081905260409020546110069082610f0e565b6001600160a01b038316600081815260208181526040918290209390935580518481529051919230926000805160206113088339815191529281900390910190a35050565b6001600160a01b0382166110905760405162461bcd60e51b81526004018080602001828103825260218152602001806113286021913960400191505060405180910390fd5b61109c826000836108b5565b6110d9816040518060600160405280602281526020016111a8602291396001600160a01b0385166000908152602081905260409020549190610e77565b6001600160a01b0383166000908152602081905260409020556002546110ff9082611142565b6002556040805182815290516000916001600160a01b038516916000805160206113088339815191529181900360200190a35050565b5490565b80546001019055565b6000610f6683836040518060400160405280601e81526020017f536166654d6174683a207375627472616374696f6e206f766572666c6f770000815250610e7756fe45524332303a207472616e7366657220746f20746865207a65726f206164647265737345524332303a206275726e20616d6f756e7420657863656564732062616c616e63654f776e61626c653a206e6577206f776e657220697320746865207a65726f206164647265737345524332303a20617070726f766520746f20746865207a65726f206164647265737345524332303a207472616e7366657220616d6f756e7420657863656564732062616c616e63655a65726f537761705065726d69743a20496e76616c6964207369676e617475726545524332303a207472616e7366657220616d6f756e74206578636565647320616c6c6f77616e63655661756c744f776e65643a2063616c6c6572206973206e6f7420746865205661756c744f776e61626c653a2063616c6c6572206973206e6f7420746865206f776e65728be0079c531659141344cd1fd0a4f28419497f9722a3daafe3b4186f6b6457e045524332303a206275726e20616d6f756e74206578636565647320616c6c6f77616e6365ddf252ad1be2c89b69c2b068fc378daa952ba7f163c4a11628f55a4df523b3ef45524332303a206275726e2066726f6d20746865207a65726f20616464726573736e71edae12b1b97f4d1f60370fef10105fa2faae0126114a169c64845d6126c945524332303a207472616e736665722066726f6d20746865207a65726f206164647265737345524332303a20617070726f76652066726f6d20746865207a65726f206164647265737345524332303a2064656372656173656420616c6c6f77616e63652062656c6f77207a65726fa2646970667358221220916c601fd77650d66894d4b2d62c6c5377e0098b3c7bc3de7540e3f3b981058264736f6c63430007050033",
    "linkReferences": {},
    "deployedLinkReferences": {}
}