{
    "_format": "hh-sol-artifact-1",
    "contractName": "TimeBondDepository",
    "sourceName": "contracts/BondDepository.sol",
    "abi": [
        {
            "inputs": [
                {
                    "internalType": "address",
                    "name": "_Time",
                    "type": "address"
                },
                {
                    "internalType": "address",
                    "name": "_principle",
                    "type": "address"
                },
                {
                    "internalType": "address",
                    "name": "_treasury",
                    "type": "address"
                },
                {
                    "internalType": "address",
                    "name": "_DAO",
                    "type": "address"
                },
                {
                    "internalType": "address",
                    "name": "_bondCalculator",
                    "type": "address"
                }
            ],
            "stateMutability": "nonpayable",
            "type": "constructor"
        },
        {
            "anonymous": false,
            "inputs": [
                {
                    "indexed": false,
                    "internalType": "uint256",
                    "name": "deposit",
                    "type": "uint256"
                },
                {
                    "indexed": true,
                    "internalType": "uint256",
                    "name": "payout",
                    "type": "uint256"
                },
                {
                    "indexed": true,
                    "internalType": "uint256",
                    "name": "expires",
                    "type": "uint256"
                },
                {
                    "indexed": true,
                    "internalType": "uint256",
                    "name": "priceInUSD",
                    "type": "uint256"
                }
            ],
            "name": "BondCreated",
            "type": "event"
        },
        {
            "anonymous": false,
            "inputs": [
                {
                    "indexed": true,
                    "internalType": "uint256",
                    "name": "priceInUSD",
                    "type": "uint256"
                },
                {
                    "indexed": true,
                    "internalType": "uint256",
                    "name": "internalPrice",
                    "type": "uint256"
                },
                {
                    "indexed": true,
                    "internalType": "uint256",
                    "name": "debtRatio",
                    "type": "uint256"
                }
            ],
            "name": "BondPriceChanged",
            "type": "event"
        },
        {
            "anonymous": false,
            "inputs": [
                {
                    "indexed": true,
                    "internalType": "address",
                    "name": "recipient",
                    "type": "address"
                },
                {
                    "indexed": false,
                    "internalType": "uint256",
                    "name": "payout",
                    "type": "uint256"
                },
                {
                    "indexed": false,
                    "internalType": "uint256",
                    "name": "remaining",
                    "type": "uint256"
                }
            ],
            "name": "BondRedeemed",
            "type": "event"
        },
        {
            "anonymous": false,
            "inputs": [
                {
                    "indexed": false,
                    "internalType": "uint256",
                    "name": "initialBCV",
                    "type": "uint256"
                },
                {
                    "indexed": false,
                    "internalType": "uint256",
                    "name": "newBCV",
                    "type": "uint256"
                },
                {
                    "indexed": false,
                    "internalType": "uint256",
                    "name": "adjustment",
                    "type": "uint256"
                },
                {
                    "indexed": false,
                    "internalType": "bool",
                    "name": "addition",
                    "type": "bool"
                }
            ],
            "name": "ControlVariableAdjustment",
            "type": "event"
        },
        {
            "anonymous": false,
            "inputs": [
                {
                    "indexed": true,
                    "internalType": "address",
                    "name": "previousOwner",
                    "type": "address"
                },
                {
                    "indexed": true,
                    "internalType": "address",
                    "name": "newOwner",
                    "type": "address"
                }
            ],
            "name": "OwnershipPulled",
            "type": "event"
        },
        {
            "anonymous": false,
            "inputs": [
                {
                    "indexed": true,
                    "internalType": "address",
                    "name": "previousOwner",
                    "type": "address"
                },
                {
                    "indexed": true,
                    "internalType": "address",
                    "name": "newOwner",
                    "type": "address"
                }
            ],
            "name": "OwnershipPushed",
            "type": "event"
        },
        {
            "inputs": [],
            "name": "DAO",
            "outputs": [
                {
                    "internalType": "address",
                    "name": "",
                    "type": "address"
                }
            ],
            "stateMutability": "view",
            "type": "function"
        },
        {
            "inputs": [],
            "name": "Time",
            "outputs": [
                {
                    "internalType": "address",
                    "name": "",
                    "type": "address"
                }
            ],
            "stateMutability": "view",
            "type": "function"
        },
        {
            "inputs": [],
            "name": "adjustment",
            "outputs": [
                {
                    "internalType": "bool",
                    "name": "add",
                    "type": "bool"
                },
                {
                    "internalType": "uint256",
                    "name": "rate",
                    "type": "uint256"
                },
                {
                    "internalType": "uint256",
                    "name": "target",
                    "type": "uint256"
                },
                {
                    "internalType": "uint32",
                    "name": "buffer",
                    "type": "uint32"
                },
                {
                    "internalType": "uint32",
                    "name": "lastTime",
                    "type": "uint32"
                }
            ],
            "stateMutability": "view",
            "type": "function"
        },
        {
            "inputs": [],
            "name": "bondCalculator",
            "outputs": [
                {
                    "internalType": "address",
                    "name": "",
                    "type": "address"
                }
            ],
            "stateMutability": "view",
            "type": "function"
        },
        {
            "inputs": [
                {
                    "internalType": "address",
                    "name": "",
                    "type": "address"
                }
            ],
            "name": "bondInfo",
            "outputs": [
                {
                    "internalType": "uint256",
                    "name": "payout",
                    "type": "uint256"
                },
                {
                    "internalType": "uint256",
                    "name": "pricePaid",
                    "type": "uint256"
                },
                {
                    "internalType": "uint32",
                    "name": "lastTime",
                    "type": "uint32"
                },
                {
                    "internalType": "uint32",
                    "name": "vesting",
                    "type": "uint32"
                }
            ],
            "stateMutability": "view",
            "type": "function"
        },
        {
            "inputs": [],
            "name": "bondPrice",
            "outputs": [
                {
                    "internalType": "uint256",
                    "name": "price_",
                    "type": "uint256"
                }
            ],
            "stateMutability": "view",
            "type": "function"
        },
        {
            "inputs": [],
            "name": "bondPriceInUSD",
            "outputs": [
                {
                    "internalType": "uint256",
                    "name": "price_",
                    "type": "uint256"
                }
            ],
            "stateMutability": "view",
            "type": "function"
        },
        {
            "inputs": [],
            "name": "currentDebt",
            "outputs": [
                {
                    "internalType": "uint256",
                    "name": "",
                    "type": "uint256"
                }
            ],
            "stateMutability": "view",
            "type": "function"
        },
        {
            "inputs": [],
            "name": "debtDecay",
            "outputs": [
                {
                    "internalType": "uint256",
                    "name": "decay_",
                    "type": "uint256"
                }
            ],
            "stateMutability": "view",
            "type": "function"
        },
        {
            "inputs": [],
            "name": "debtRatio",
            "outputs": [
                {
                    "internalType": "uint256",
                    "name": "debtRatio_",
                    "type": "uint256"
                }
            ],
            "stateMutability": "view",
            "type": "function"
        },
        {
            "inputs": [
                {
                    "internalType": "uint256",
                    "name": "_amount",
                    "type": "uint256"
                },
                {
                    "internalType": "uint256",
                    "name": "_maxPrice",
                    "type": "uint256"
                },
                {
                    "internalType": "address",
                    "name": "_depositor",
                    "type": "address"
                }
            ],
            "name": "deposit",
            "outputs": [
                {
                    "internalType": "uint256",
                    "name": "",
                    "type": "uint256"
                }
            ],
            "stateMutability": "nonpayable",
            "type": "function"
        },
        {
            "inputs": [
                {
                    "internalType": "uint256",
                    "name": "_controlVariable",
                    "type": "uint256"
                },
                {
                    "internalType": "uint256",
                    "name": "_minimumPrice",
                    "type": "uint256"
                },
                {
                    "internalType": "uint256",
                    "name": "_maxPayout",
                    "type": "uint256"
                },
                {
                    "internalType": "uint256",
                    "name": "_fee",
                    "type": "uint256"
                },
                {
                    "internalType": "uint256",
                    "name": "_maxDebt",
                    "type": "uint256"
                },
                {
                    "internalType": "uint256",
                    "name": "_initialDebt",
                    "type": "uint256"
                },
                {
                    "internalType": "uint32",
                    "name": "_vestingTerm",
                    "type": "uint32"
                }
            ],
            "name": "initializeBondTerms",
            "outputs": [],
            "stateMutability": "nonpayable",
            "type": "function"
        },
        {
            "inputs": [],
            "name": "isLiquidityBond",
            "outputs": [
                {
                    "internalType": "bool",
                    "name": "",
                    "type": "bool"
                }
            ],
            "stateMutability": "view",
            "type": "function"
        },
        {
            "inputs": [],
            "name": "lastDecay",
            "outputs": [
                {
                    "internalType": "uint32",
                    "name": "",
                    "type": "uint32"
                }
            ],
            "stateMutability": "view",
            "type": "function"
        },
        {
            "inputs": [],
            "name": "maxPayout",
            "outputs": [
                {
                    "internalType": "uint256",
                    "name": "",
                    "type": "uint256"
                }
            ],
            "stateMutability": "view",
            "type": "function"
        },
        {
            "inputs": [
                {
                    "internalType": "uint256",
                    "name": "_value",
                    "type": "uint256"
                }
            ],
            "name": "payoutFor",
            "outputs": [
                {
                    "internalType": "uint256",
                    "name": "",
                    "type": "uint256"
                }
            ],
            "stateMutability": "view",
            "type": "function"
        },
        {
            "inputs": [
                {
                    "internalType": "address",
                    "name": "_depositor",
                    "type": "address"
                }
            ],
            "name": "pendingPayoutFor",
            "outputs": [
                {
                    "internalType": "uint256",
                    "name": "pendingPayout_",
                    "type": "uint256"
                }
            ],
            "stateMutability": "view",
            "type": "function"
        },
        {
            "inputs": [
                {
                    "internalType": "address",
                    "name": "_depositor",
                    "type": "address"
                }
            ],
            "name": "percentVestedFor",
            "outputs": [
                {
                    "internalType": "uint256",
                    "name": "percentVested_",
                    "type": "uint256"
                }
            ],
            "stateMutability": "view",
            "type": "function"
        },
        {
            "inputs": [],
            "name": "policy",
            "outputs": [
                {
                    "internalType": "address",
                    "name": "",
                    "type": "address"
                }
            ],
            "stateMutability": "view",
            "type": "function"
        },
        {
            "inputs": [],
            "name": "principle",
            "outputs": [
                {
                    "internalType": "address",
                    "name": "",
                    "type": "address"
                }
            ],
            "stateMutability": "view",
            "type": "function"
        },
        {
            "inputs": [],
            "name": "pullManagement",
            "outputs": [],
            "stateMutability": "nonpayable",
            "type": "function"
        },
        {
            "inputs": [
                {
                    "internalType": "address",
                    "name": "newOwner_",
                    "type": "address"
                }
            ],
            "name": "pushManagement",
            "outputs": [],
            "stateMutability": "nonpayable",
            "type": "function"
        },
        {
            "inputs": [
                {
                    "internalType": "address",
                    "name": "_token",
                    "type": "address"
                }
            ],
            "name": "recoverLostToken",
            "outputs": [
                {
                    "internalType": "bool",
                    "name": "",
                    "type": "bool"
                }
            ],
            "stateMutability": "nonpayable",
            "type": "function"
        },
        {
            "inputs": [
                {
                    "internalType": "address",
                    "name": "_recipient",
                    "type": "address"
                },
                {
                    "internalType": "bool",
                    "name": "_stake",
                    "type": "bool"
                }
            ],
            "name": "redeem",
            "outputs": [
                {
                    "internalType": "uint256",
                    "name": "",
                    "type": "uint256"
                }
            ],
            "stateMutability": "nonpayable",
            "type": "function"
        },
        {
            "inputs": [],
            "name": "renounceManagement",
            "outputs": [],
            "stateMutability": "nonpayable",
            "type": "function"
        },
        {
            "inputs": [
                {
                    "internalType": "bool",
                    "name": "_addition",
                    "type": "bool"
                },
                {
                    "internalType": "uint256",
                    "name": "_increment",
                    "type": "uint256"
                },
                {
                    "internalType": "uint256",
                    "name": "_target",
                    "type": "uint256"
                },
                {
                    "internalType": "uint32",
                    "name": "_buffer",
                    "type": "uint32"
                }
            ],
            "name": "setAdjustment",
            "outputs": [],
            "stateMutability": "nonpayable",
            "type": "function"
        },
        {
            "inputs": [
                {
                    "internalType": "enum TimeBondDepository.PARAMETER",
                    "name": "_parameter",
                    "type": "uint8"
                },
                {
                    "internalType": "uint256",
                    "name": "_input",
                    "type": "uint256"
                }
            ],
            "name": "setBondTerms",
            "outputs": [],
            "stateMutability": "nonpayable",
            "type": "function"
        },
        {
            "inputs": [
                {
                    "internalType": "address",
                    "name": "_staking",
                    "type": "address"
                },
                {
                    "internalType": "bool",
                    "name": "_helper",
                    "type": "bool"
                }
            ],
            "name": "setStaking",
            "outputs": [],
            "stateMutability": "nonpayable",
            "type": "function"
        },
        {
            "inputs": [],
            "name": "staking",
            "outputs": [
                {
                    "internalType": "address",
                    "name": "",
                    "type": "address"
                }
            ],
            "stateMutability": "view",
            "type": "function"
        },
        {
            "inputs": [],
            "name": "stakingHelper",
            "outputs": [
                {
                    "internalType": "address",
                    "name": "",
                    "type": "address"
                }
            ],
            "stateMutability": "view",
            "type": "function"
        },
        {
            "inputs": [],
            "name": "standardizedDebtRatio",
            "outputs": [
                {
                    "internalType": "uint256",
                    "name": "",
                    "type": "uint256"
                }
            ],
            "stateMutability": "view",
            "type": "function"
        },
        {
            "inputs": [],
            "name": "terms",
            "outputs": [
                {
                    "internalType": "uint256",
                    "name": "controlVariable",
                    "type": "uint256"
                },
                {
                    "internalType": "uint256",
                    "name": "minimumPrice",
                    "type": "uint256"
                },
                {
                    "internalType": "uint256",
                    "name": "maxPayout",
                    "type": "uint256"
                },
                {
                    "internalType": "uint256",
                    "name": "fee",
                    "type": "uint256"
                },
                {
                    "internalType": "uint256",
                    "name": "maxDebt",
                    "type": "uint256"
                },
                {
                    "internalType": "uint32",
                    "name": "vestingTerm",
                    "type": "uint32"
                }
            ],
            "stateMutability": "view",
            "type": "function"
        },
        {
            "inputs": [],
            "name": "totalDebt",
            "outputs": [
                {
                    "internalType": "uint256",
                    "name": "",
                    "type": "uint256"
                }
            ],
            "stateMutability": "view",
            "type": "function"
        },
        {
            "inputs": [],
            "name": "treasury",
            "outputs": [
                {
                    "internalType": "address",
                    "name": "",
                    "type": "address"
                }
            ],
            "stateMutability": "view",
            "type": "function"
        },
        {
            "inputs": [],
            "name": "useHelper",
            "outputs": [
                {
                    "internalType": "bool",
                    "name": "",
                    "type": "bool"
                }
            ],
            "stateMutability": "view",
            "type": "function"
        }
    ],
    "bytecode": "0x6101406040523480156200001257600080fd5b5060405162002e2938038062002e29833981810160405260a08110156200003857600080fd5b50805160208201516040808401516060850151608090950151600080546001600160a01b031916331780825593519596949592949391926001600160a01b0392909216917fea8258f2d9ddb679928cf34b78cf645b7feda9acc828e4dd82d014eaae270eba908290a36001600160a01b038516620000b557600080fd5b6001600160601b0319606086901b166080526001600160a01b038416620000db57600080fd5b6001600160601b0319606085901b1660a0526001600160a01b0383166200010157600080fd5b6001600160601b0319606084901b1660c0526001600160a01b0382166200012757600080fd5b6001600160601b0319606092831b811660e0529181901b909116610120526001600160a01b0316151560f81b6101005250505060805160601c60a05160601c60c05160601c60e05160601c6101005160f81c6101205160601c612bfb6200022e60003980610d9952806115535280611899525080610d6b52806115225280611b9f525080611394528061161c52806117e6525080610cf55280611002528061120652806112e85250806105655280610dc85280610e6f528061103152806111ad52806111d752806112b7528061158252806117a4525080611372528061176552806118f25280611c145280611d045280611dd45280611eb95280611fce5250612bfb6000f3fe608060405234801561001057600080fd5b50600436106101a15760003560e01c8063016a4284146101a657806301b88ee8146101ca5780630505c8c914610202578063089208d81461020a5780631e321a0f146102145780631feed31f1461023a5780632f3f470a14610268578063451ee4a11461028457806346f68ee9146102c25780634cf088d9146102e8578063507930ec146102f05780635a96ac0a1461031657806361d027b31461031e578063759076e51461032657806377b818951461032e5780637927ebf814610336578063844b5c7c146103535780638dbdbe6d1461035b578063904b3ece1461038d57806398fabd3a14610395578063ae9832cf1461039d578063b4abccba146103d4578063c5332b7c146103fa578063cd1234b314610402578063cea55f5714610454578063cf37a8911461045c578063d4d863ce146104a3578063d5025625146104d1578063d796906014610512578063d7ccfb0b1461051a578063e0176de814610522578063e392a2621461052a578063f5c2ab5b14610532578063f8e157ea14610553578063fc7b9c181461055b575b600080fd5b6101ae610563565b604080516001600160a01b039092168252519081900360200190f35b6101f0600480360360208110156101e057600080fd5b50356001600160a01b0316610587565b60408051918252519081900360200190f35b6101ae6105e0565b6102126105f0565b005b6102126004803603604081101561022a57600080fd5b5060ff8135169060200135610675565b6101f06004803603604081101561025057600080fd5b506001600160a01b0381351690602001351515610857565b610270610a81565b604080519115158252519081900360200190f35b61028c610a91565b60408051951515865260208601949094528484019290925263ffffffff9081166060850152166080830152519081900360a00190f35b610212600480360360208110156102d857600080fd5b50356001600160a01b0316610ab7565b6101ae610b92565b6101f06004803603602081101561030657600080fd5b50356001600160a01b0316610ba1565b610212610c49565b6101ae610cf3565b6101f0610d17565b6101ae610d32565b6101f06004803603602081101561034c57600080fd5b5035610d41565b6101f0610d67565b6101f06004803603606081101561037157600080fd5b50803590602081013590604001356001600160a01b0316610f00565b6101f061151e565b6101ae61161a565b610212600480360360808110156103b357600080fd5b5080351515906020810135906040810135906060013563ffffffff1661163e565b610270600480360360208110156103ea57600080fd5b50356001600160a01b0316611761565b6101ae611897565b6104286004803603602081101561041857600080fd5b50356001600160a01b03166118bb565b60408051948552602085019390935263ffffffff91821684840152166060830152519081900360800190f35b6101f06118ed565b610212600480360360e081101561047257600080fd5b5080359060208101359060408101359060608101359060808101359060a08101359060c0013563ffffffff166119a5565b610212600480360360408110156104b957600080fd5b506001600160a01b0381351690602001351515611abf565b6104d9611b82565b604080519687526020870195909552858501939093526060850191909152608084015263ffffffff1660a0830152519081900360c00190f35b610270611b9d565b6101f0611bc1565b6101f0611c00565b6101f0611c9d565b61053a611cf6565b6040805163ffffffff9092168252519081900360200190f35b6101ae611d02565b6101f0611d26565b7f000000000000000000000000000000000000000000000000000000000000000081565b60008061059383610ba1565b6001600160a01b0384166000908152600e602052604090205490915061271082106105c0578092506105d9565b6105d66127106105d08385611d2c565b90611d8c565b92505b5050919050565b6000546001600160a01b03165b90565b6000546001600160a01b0316331461063d576040805162461bcd60e51b81526020600482018190526024820152600080516020612b15833981519152604482015290519081900360640190fd5b600080546040516001600160a01b0390911690600080516020612a26833981519152908390a3600080546001600160a01b0319169055565b6000546001600160a01b031633146106c2576040805162461bcd60e51b81526020600482018190526024820152600080516020612b15833981519152604482015290519081900360640190fd5b60008260048111156106d057fe5b1415610732576201fa408110156107185760405162461bcd60e51b8152600401808060200182810382526024815260200180612b586024913960400191505060405180910390fd5b6009805463ffffffff191663ffffffff8316179055610853565b600182600481111561074057fe5b14156107a7576103e881111561079d576040805162461bcd60e51b815260206004820181905260248201527f5061796f75742063616e6e6f742062652061626f766520312070657263656e74604482015290519081900360640190fd5b6006819055610853565b60028260048111156107b557fe5b141561081b57612710811115610811576040805162461bcd60e51b815260206004820152601c60248201527b111053c81999594818d85b9b9bdd08195e18d95959081c185e5bdd5d60221b604482015290519081900360640190fd5b6007819055610853565b600382600481111561082957fe5b1415610839576008819055610853565b600482600481111561084757fe5b14156108535760058190555b5050565b60006108616129df565b506001600160a01b0383166000908152600e602090815260408083208151608081018352815481526001820154938101939093526002015463ffffffff80821692840192909252600160201b9004166060820152906108bf85610ba1565b90506127108110610941576001600160a01b0385166000818152600e602090815260408083208381556001810184905560020180546001600160401b031916905585518151908152918201929092528151600080516020612a6c833981519152929181900390910190a261093885858460000151611dcb565b92505050610a7b565b815160009061095890612710906105d09085611d2c565b9050604051806080016040528061097c8386600001516120cf90919063ffffffff16565b8152602001846020015181526020014263ffffffff1681526020016109d06109b786604001514263ffffffff166120ff90919063ffffffff16565b866060015163ffffffff166120ff90919063ffffffff16565b63ffffffff9081169091526001600160a01b0388166000818152600e6020908152604091829020855180825586830151600183015586840151600290920180546060909801518716600160201b0263ffffffff60201b199390971663ffffffff1990981697909717919091169490941790945580518581529384019290925281519092600080516020612a6c83398151915292908290030190a2610a75868683611dcb565b93505050505b92915050565b600354600160a01b900460ff1681565b600a54600b54600c54600d5460ff9093169263ffffffff80821691600160201b90041685565b6000546001600160a01b03163314610b04576040805162461bcd60e51b81526020600482018190526024820152600080516020612b15833981519152604482015290519081900360640190fd5b6001600160a01b038116610b495760405162461bcd60e51b8152600401808060200182810382526026815260200180612a466026913960400191505060405180910390fd5b600080546040516001600160a01b0380851693921691600080516020612a2683398151915291a3600180546001600160a01b0319166001600160a01b0392909216919091179055565b6002546001600160a01b031681565b6000610bab6129df565b506001600160a01b0382166000908152600e602090815260408083208151608081018352815481526001820154938101939093526002015463ffffffff808216928401839052600160201b90910481166060840152919291610c1191428216916120cf16565b606083015190915063ffffffff168015610c3c57610c35816105d084612710611d2c565b9350610c41565b600093505b505050919050565b6001546001600160a01b03163314610c925760405162461bcd60e51b8152600401808060200182810382526022815260200180612a8c6022913960400191505060405180910390fd5b600154600080546040516001600160a01b0393841693909116917faa151555690c956fc3ea32f106bb9f119b5237a061eaa8557cff3e51e3792c8d91a3600154600080546001600160a01b0319166001600160a01b03909216919091179055565b7f000000000000000000000000000000000000000000000000000000000000000081565b6000610d2d610d24611c9d565b600f54906120cf565b905090565b6003546001600160a01b031681565b6000610a7b662386f26fc100006105d0610d6285610d5d611bc1565b61212f565b612277565b60007f000000000000000000000000000000000000000000000000000000000000000015610e6557610e5e60646105d07f00000000000000000000000000000000000000000000000000000000000000006001600160a01b03166332da80a37f00000000000000000000000000000000000000000000000000000000000000006040518263ffffffff1660e01b815260040180826001600160a01b0316815260200191505060206040518083038186803b158015610e2457600080fd5b505afa158015610e38573d6000803e3d6000fd5b505050506040513d6020811015610e4e57600080fd5b5051610e58611bc1565b90611d2c565b90506105ed565b610d2d60646105d07f00000000000000000000000000000000000000000000000000000000000000006001600160a01b031663313ce5676040518163ffffffff1660e01b815260040160206040518083038186803b158015610ec657600080fd5b505afa158015610eda573d6000803e3d6000fd5b505050506040513d6020811015610ef057600080fd5b505160ff16600a0a610e58611bc1565b60006001600160a01b038216610f4f576040805162461bcd60e51b815260206004820152600f60248201526e496e76616c6964206164647265737360881b604482015290519081900360640190fd5b610f5761228f565b600854600f541115610fa7576040805162461bcd60e51b815260206004820152601460248201527313585e0818d85c1858da5d1e481c995858da195960621b604482015290519081900360640190fd5b6000610fb1610d67565b90506000610fbd6122b4565b905080851015610ffe5760405162461bcd60e51b8152600401808060200182810382526023815260200180612b356023913960400191505060405180910390fd5b60007f00000000000000000000000000000000000000000000000000000000000000006001600160a01b0316631eec5a9a7f0000000000000000000000000000000000000000000000000000000000000000896040518363ffffffff1660e01b815260040180836001600160a01b031681526020018281526020019250505060206040518083038186803b15801561109557600080fd5b505afa1580156110a9573d6000803e3d6000fd5b505050506040513d60208110156110bf57600080fd5b5051905060006110ce82610d41565b905062989680811015611119576040805162461bcd60e51b815260206004820152600e60248201526d109bdb99081d1bdbc81cdb585b1b60921b604482015290519081900360640190fd5b611121611c00565b811115611166576040805162461bcd60e51b815260206004820152600e60248201526d426f6e6420746f6f206c6172676560901b604482015290519081900360640190fd5b60006111866127106105d060046003015485611d2c90919063ffffffff16565b9050600061119e8261119886866120cf565b906120cf565b90506111d56001600160a01b037f00000000000000000000000000000000000000000000000000000000000000001633308d6122f6565b7f00000000000000000000000000000000000000000000000000000000000000006001600160a01b031663095ea7b37f00000000000000000000000000000000000000000000000000000000000000008c6040518363ffffffff1660e01b815260040180836001600160a01b0316815260200182815260200192505050602060405180830381600087803b15801561126c57600080fd5b505af1158015611280573d6000803e3d6000fd5b505050506040513d602081101561129657600080fd5b50506040805163bc157ac160e01b8152600481018c90526001600160a01b037f0000000000000000000000000000000000000000000000000000000000000000811660248301526044820184905291517f00000000000000000000000000000000000000000000000000000000000000009092169163bc157ac1916064808201926020929091908290030181600087803b15801561133357600080fd5b505af1158015611347573d6000803e3d6000fd5b505050506040513d602081101561135d57600080fd5b505081156113b9576113b96001600160a01b037f0000000000000000000000000000000000000000000000000000000000000000167f000000000000000000000000000000000000000000000000000000000000000084612356565b600f546113c690856123ad565b600f55604080516080810182526001600160a01b038a166000908152600e602052919091205481906113f890866123ad565b8152602080820189905263ffffffff428181166040808601919091526009805484166060968701526001600160a01b038f166000908152600e865282902087518155948701516001860155908601516002909401805496909501518316600160201b0263ffffffff60201b1994841663ffffffff199097169690961793909316949094179092555488926114919290918116906123ad16565b604080518d8152905186917f1fec6dc81f140574bf43f6b1e420ae1dd47928b9d57db8cbd7b8611063b85ae5919081900360200190a46114cf6118ed565b6114d76122b4565b6114df610d67565b6040517f375b221f40939bfd8f49723a17cf7bc6d576ebf72efe2cc3e991826f5b3f390a90600090a4611510612405565b509098975050505050505050565b60007f00000000000000000000000000000000000000000000000000000000000000001561161257610e5e633b9aca006105d07f00000000000000000000000000000000000000000000000000000000000000006001600160a01b03166332da80a37f00000000000000000000000000000000000000000000000000000000000000006040518263ffffffff1660e01b815260040180826001600160a01b0316815260200191505060206040518083038186803b1580156115de57600080fd5b505afa1580156115f2573d6000803e3d6000fd5b505050506040513d602081101561160857600080fd5b5051610e586118ed565b610e5e6118ed565b7f000000000000000000000000000000000000000000000000000000000000000081565b6000546001600160a01b0316331461168b576040805162461bcd60e51b81526020600482018190526024820152600080516020612b15833981519152604482015290519081900360640190fd5b6004546116a1906103e8906105d0906019611d2c565b8311156116eb576040805162461bcd60e51b8152602060048201526013602482015272496e6372656d656e7420746f6f206c6172676560681b604482015290519081900360640190fd5b6040805160a0810182529415158086526020860185905290850183905263ffffffff91821660608601819052429092166080909501859052600a805460ff19169091179055600b92909255600c55600d805463ffffffff191690911763ffffffff60201b1916600160201b909202919091179055565b60007f00000000000000000000000000000000000000000000000000000000000000006001600160a01b0316826001600160a01b031614156117a257600080fd5b7f00000000000000000000000000000000000000000000000000000000000000006001600160a01b0316826001600160a01b031614156117e157600080fd5b61188f7f0000000000000000000000000000000000000000000000000000000000000000836001600160a01b03166370a08231306040518263ffffffff1660e01b815260040180826001600160a01b0316815260200191505060206040518083038186803b15801561185257600080fd5b505afa158015611866573d6000803e3d6000fd5b505050506040513d602081101561187c57600080fd5b50516001600160a01b0385169190612356565b506001919050565b7f000000000000000000000000000000000000000000000000000000000000000081565b600e6020526000908152604090208054600182015460029092015490919063ffffffff80821691600160201b90041684565b6000807f00000000000000000000000000000000000000000000000000000000000000006001600160a01b03166318160ddd6040518163ffffffff1660e01b815260040160206040518083038186803b15801561194957600080fd5b505afa15801561195d573d6000803e3d6000fd5b505050506040513d602081101561197357600080fd5b5051905061199f670de0b6b3a76400006105d0610d62611999633b9aca00610e58610d17565b8561212f565b91505090565b6000546001600160a01b031633146119f2576040805162461bcd60e51b81526020600482018190526024820152600080516020612b15833981519152604482015290519081900360640190fd5b60045415611a47576040805162461bcd60e51b815260206004820181905260248201527f426f6e6473206d75737420626520696e697469616c697a65642066726f6d2030604482015290519081900360640190fd5b6040805160c08101825288815260208101889052908101869052606081018590526080810184905263ffffffff91821660a09091018190526004979097556005959095556006939093556007919091556008556009805463ffffffff199081169094179055600f556010805490921642909116179055565b6000546001600160a01b03163314611b0c576040805162461bcd60e51b81526020600482018190526024820152600080516020612b15833981519152604482015290519081900360640190fd5b6001600160a01b038216611b1f57600080fd5b8015611b545760038054600160a01b60ff60a01b19909116176001600160a01b0319166001600160a01b038416179055610853565b6003805460ff60a01b19169055600280546001600160a01b0384166001600160a01b03199091161790555050565b60045460055460065460075460085460095463ffffffff1686565b7f000000000000000000000000000000000000000000000000000000000000000081565b6000611bec629896806105d0633b9aca00611be6611bdd6118ed565b60045490611d2c565b906123ad565b6005549091508110156105ed575060055490565b6000610d2d620186a06105d06004600201547f00000000000000000000000000000000000000000000000000000000000000006001600160a01b03166318160ddd6040518163ffffffff1660e01b815260040160206040518083038186803b158015611c6b57600080fd5b505afa158015611c7f573d6000803e3d6000fd5b505050506040513d6020811015611c9557600080fd5b505190611d2c565b6010546000908190611cbb9063ffffffff428116918116906120ff16565b600954600f54919250611ce09163ffffffff918216916105d0919080861690611d2c16565b9150600f54821115611cf257600f5491505b5090565b60105463ffffffff1681565b7f000000000000000000000000000000000000000000000000000000000000000081565b600f5481565b600082611d3b57506000610a7b565b82820282848281611d4857fe5b0414611d855760405162461bcd60e51b8152600401808060200182810382526021815260200180612af46021913960400191505060405180910390fd5b9392505050565b6000611d8583836040518060400160405280601a815260200179536166654d6174683a206469766973696f6e206279207a65726f60301b81525061250f565b600082611e7b577f00000000000000000000000000000000000000000000000000000000000000006001600160a01b031663a9059cbb85846040518363ffffffff1660e01b815260040180836001600160a01b0316815260200182815260200192505050602060405180830381600087803b158015611e4957600080fd5b505af1158015611e5d573d6000803e3d6000fd5b505050506040513d6020811015611e7357600080fd5b506120c89050565b600354600160a01b900460ff1615611fa2576003546040805163095ea7b360e01b81526001600160a01b0392831660048201526024810185905290517f00000000000000000000000000000000000000000000000000000000000000009092169163095ea7b3916044808201926020929091908290030181600087803b158015611f0457600080fd5b505af1158015611f18573d6000803e3d6000fd5b505050506040513d6020811015611f2e57600080fd5b505060035460408051637acb775760e01b8152600481018590526001600160a01b03878116602483015291519190921691637acb775791604480830192600092919082900301818387803b158015611f8557600080fd5b505af1158015611f99573d6000803e3d6000fd5b505050506120c8565b6002546040805163095ea7b360e01b81526001600160a01b0392831660048201526024810185905290517f00000000000000000000000000000000000000000000000000000000000000009092169163095ea7b3916044808201926020929091908290030181600087803b15801561201957600080fd5b505af115801561202d573d6000803e3d6000fd5b505050506040513d602081101561204357600080fd5b505060025460408051637acb775760e01b8152600481018590526001600160a01b03878116602483015291519190921691637acb77579160448083019260209291908290030181600087803b15801561209b57600080fd5b505af11580156120af573d6000803e3d6000fd5b505050506040513d60208110156120c557600080fd5b50505b5092915050565b6000611d8583836040518060400160405280601e8152602001600080516020612b7c8339815191528152506125b1565b6000611d8583836040518060400160405280601e8152602001600080516020612b7c83398151915281525061260b565b612137612a13565b600082116121765760405162461bcd60e51b8152600401808060200182810382526026815260200180612aae6026913960400191505060405180910390fd5b826121905750604080516020810190915260008152610a7b565b6001600160901b03831161221a57600082607085901b816121ad57fe5b0490506001600160e01b038111156121fa576040805162461bcd60e51b815260206004820152601e6024820152600080516020612ad4833981519152604482015290519081900360640190fd5b6040518060200160405280826001600160e01b0316815250915050610a7b565b600061222b84600160701b8561266a565b90506001600160e01b038111156121fa576040805162461bcd60e51b815260206004820152601e6024820152600080516020612ad4833981519152604482015290519081900360640190fd5b516612725dd1d243ab6001600160e01b039091160490565b61229a610d24611c9d565b600f556010805463ffffffff19164263ffffffff16179055565b60006122d0629896806105d0633b9aca00611be6611bdd6118ed565b6005549091508110156122e657506005546105ed565b600554156105ed57600060055590565b604080516001600160a01b0380861660248301528416604482015260648082018490528251808303909101815260849091019091526020810180516001600160e01b03166323b872dd60e01b179052612350908590612707565b50505050565b604080516001600160a01b038416602482015260448082018490528251808303909101815260649091019091526020810180516001600160e01b031663a9059cbb60e01b1790526123a8908490612707565b505050565b600082820183811015611d85576040805162461bcd60e51b815260206004820152601b60248201527a536166654d6174683a206164646974696f6e206f766572666c6f7760281b604482015290519081900360640190fd5b600d546000906124279063ffffffff600160201b82048116918116906123ad16565b600b549091501580159061243b5750804210155b1561250c57600454600a5460ff161561247557600b5460045461245d916123ad565b6004819055600c5411612470576000600b555b612497565b600b54600454612484916120cf565b6004819055600c5410612497576000600b555b600d805463ffffffff60201b1916600160201b4263ffffffff1602179055600454600b54600a546040805185815260208101949094528381019290925260ff1615156060830152517fb923e581a0f83128e9e1d8297aa52b18d6744310476e0b54509c054cd7a93b2a916080908290030190a1505b50565b6000818361259b5760405162461bcd60e51b81526004018080602001828103825283818151815260200191508051906020019080838360005b83811015612560578181015183820152602001612548565b50505050905090810190601f16801561258d5780820380516001836020036101000a031916815260200191505b509250505060405180910390fd5b5060008385816125a757fe5b0495945050505050565b600081848411156126035760405162461bcd60e51b8152602060048201818152835160248401528351909283926044909101919085019080838360008315612560578181015183820152602001612548565b505050900390565b60008363ffffffff168363ffffffff16111582906126035760405162461bcd60e51b8152602060048201818152835160248401528351909283926044909101919085019080838360008315612560578181015183820152602001612548565b600080600061267986866127b8565b915091506000848061268757fe5b86880990508281111561269b576001820391505b80830392508482106126f1576040805162461bcd60e51b815260206004820152601a60248201527946756c6c4d6174683a3a6d756c4469763a206f766572666c6f7760301b604482015290519081900360640190fd5b6126fc8383876127e5565b979650505050505050565b606061275c826040518060400160405280602081526020017f5361666545524332303a206c6f772d6c6576656c2063616c6c206661696c6564815250856001600160a01b03166128559092919063ffffffff16565b8051909150156123a85780806020019051602081101561277b57600080fd5b50516123a85760405162461bcd60e51b815260040180806020018281038252602a815260200180612b9c602a913960400191505060405180910390fd5b60008080600019848609905083850292508281039150828110156127dd576001820391505b509250929050565b600081810382168083816127f557fe5b04925080858161280157fe5b04945080816000038161281057fe5b60028581038087028203028087028203028087028203028087028203028087028203028087028203029586029003909402930460010193909302939093010292915050565b6060612864848460008561286c565b949350505050565b6060612877856129d9565b6128c8576040805162461bcd60e51b815260206004820152601d60248201527f416464726573733a2063616c6c20746f206e6f6e2d636f6e7472616374000000604482015290519081900360640190fd5b60006060866001600160a01b031685876040518082805190602001908083835b602083106129075780518252601f1990920191602091820191016128e8565b6001836020036101000a03801982511681845116808217855250505050505090500191505060006040518083038185875af1925050503d8060008114612969576040519150601f19603f3d011682016040523d82523d6000602084013e61296e565b606091505b509150915081156129825791506128649050565b8051156129925780518082602001fd5b60405162461bcd60e51b8152602060048201818152865160248401528651879391928392604401919085019080838360008315612560578181015183820152602001612548565b3b151590565b60405180608001604052806000815260200160008152602001600063ffffffff168152602001600063ffffffff1681525090565b6040805160208101909152600081529056feea8258f2d9ddb679928cf34b78cf645b7feda9acc828e4dd82d014eaae270eba4f776e61626c653a206e6577206f776e657220697320746865207a65726f206164647265737351c99f515c87b0d95ba97f616edd182e8f161c4932eac17c6fefe9dab58b77b14f776e61626c653a206d757374206265206e6577206f776e657220746f2070756c6c4669786564506f696e743a3a6672616374696f6e3a206469766973696f6e206279207a65726f4669786564506f696e743a3a6672616374696f6e3a206f766572666c6f770000536166654d6174683a206d756c7469706c69636174696f6e206f766572666c6f774f776e61626c653a2063616c6c6572206973206e6f7420746865206f776e6572536c697070616765206c696d69743a206d6f7265207468616e206d617820707269636556657374696e67206d757374206265206c6f6e676572207468616e20333620686f757273536166654d6174683a207375627472616374696f6e206f766572666c6f7700005361666545524332303a204552433230206f7065726174696f6e20646964206e6f742073756363656564a2646970667358221220d043735d20089a97241b3bfab176b11215a897b54e7069fd538104230a2a7b0c64736f6c63430007050033",
    "linkReferences": {},
    "deployedLinkReferences": {}
}